{
  "address": "0x6560245C5dD790B8205FEecD2B6D8fF706CfFf31",
  "abi": [
    {
      "inputs": [
        {
          "internalType": "contract ZTorRegistry",
          "name": "_registry",
          "type": "address"
        },
        {
          "internalType": "contract ZTorLiquidityStats",
          "name": "_stats",
          "type": "address"
        },
        {
          "internalType": "contract IZTorVerifier",
          "name": "_verifier",
          "type": "address"
        },
        {
          "internalType": "contract IERC7984",
          "name": "_cWeth",
          "type": "address"
        },
        {
          "internalType": "contract IERC7984",
          "name": "_cUsdc",
          "type": "address"
        },
        {
          "internalType": "uint256",
          "name": "_anonymityDelay",
          "type": "uint256"
        },
        {
          "internalType": "uint32",
          "name": "_treeLevels",
          "type": "uint32"
        }
      ],
      "stateMutability": "nonpayable",
      "type": "constructor"
    },
    {
      "inputs": [],
      "name": "DenominationOutOfRange",
      "type": "error"
    },
    {
      "inputs": [],
      "name": "PoolAlreadyExists",
      "type": "error"
    },
    {
      "anonymous": false,
      "inputs": [
        {
          "indexed": false,
          "internalType": "string",
          "name": "poolId",
          "type": "string"
        },
        {
          "indexed": true,
          "internalType": "address",
          "name": "pool",
          "type": "address"
        },
        {
          "indexed": false,
          "internalType": "uint256",
          "name": "denomination",
          "type": "uint256"
        }
      ],
      "name": "PoolCreated",
      "type": "event"
    },
    {
      "inputs": [],
      "name": "MAX_ETH",
      "outputs": [
        {
          "internalType": "uint256",
          "name": "",
          "type": "uint256"
        }
      ],
      "stateMutability": "view",
      "type": "function"
    },
    {
      "inputs": [],
      "name": "MAX_USDC",
      "outputs": [
        {
          "internalType": "uint256",
          "name": "",
          "type": "uint256"
        }
      ],
      "stateMutability": "view",
      "type": "function"
    },
    {
      "inputs": [],
      "name": "MIN_ETH",
      "outputs": [
        {
          "internalType": "uint256",
          "name": "",
          "type": "uint256"
        }
      ],
      "stateMutability": "view",
      "type": "function"
    },
    {
      "inputs": [],
      "name": "MIN_USDC",
      "outputs": [
        {
          "internalType": "uint256",
          "name": "",
          "type": "uint256"
        }
      ],
      "stateMutability": "view",
      "type": "function"
    },
    {
      "inputs": [],
      "name": "anonymityDelay",
      "outputs": [
        {
          "internalType": "uint256",
          "name": "",
          "type": "uint256"
        }
      ],
      "stateMutability": "view",
      "type": "function"
    },
    {
      "inputs": [],
      "name": "cUsdc",
      "outputs": [
        {
          "internalType": "contract IERC7984",
          "name": "",
          "type": "address"
        }
      ],
      "stateMutability": "view",
      "type": "function"
    },
    {
      "inputs": [],
      "name": "cWeth",
      "outputs": [
        {
          "internalType": "contract IERC7984",
          "name": "",
          "type": "address"
        }
      ],
      "stateMutability": "view",
      "type": "function"
    },
    {
      "inputs": [
        {
          "internalType": "uint256",
          "name": "denomination",
          "type": "uint256"
        }
      ],
      "name": "createEthPool",
      "outputs": [
        {
          "internalType": "address",
          "name": "pool",
          "type": "address"
        }
      ],
      "stateMutability": "nonpayable",
      "type": "function"
    },
    {
      "inputs": [
        {
          "internalType": "uint256",
          "name": "denomination",
          "type": "uint256"
        }
      ],
      "name": "createUsdcPool",
      "outputs": [
        {
          "internalType": "address",
          "name": "pool",
          "type": "address"
        }
      ],
      "stateMutability": "nonpayable",
      "type": "function"
    },
    {
      "inputs": [],
      "name": "registry",
      "outputs": [
        {
          "internalType": "contract ZTorRegistry",
          "name": "",
          "type": "address"
        }
      ],
      "stateMutability": "view",
      "type": "function"
    },
    {
      "inputs": [],
      "name": "stats",
      "outputs": [
        {
          "internalType": "contract ZTorLiquidityStats",
          "name": "",
          "type": "address"
        }
      ],
      "stateMutability": "view",
      "type": "function"
    },
    {
      "inputs": [],
      "name": "treeLevels",
      "outputs": [
        {
          "internalType": "uint32",
          "name": "",
          "type": "uint32"
        }
      ],
      "stateMutability": "view",
      "type": "function"
    },
    {
      "inputs": [],
      "name": "verifier",
      "outputs": [
        {
          "internalType": "contract IZTorVerifier",
          "name": "",
          "type": "address"
        }
      ],
      "stateMutability": "view",
      "type": "function"
    }
  ],
  "transactionHash": "0xd449f8bf47013f002a9fb03bb40222cb855e6091e5ace985445f9916e41b6a36",
  "args": [
    "0x21E4D83C5C4329Cad8f59bc7408C49d24A3D39d2",
    "0xD6B6AB5f7e3A612ccaC70e72B2c196cE6Ea37994",
    "0x04F2ADA900BeCDe03E5306d652049344a6fAdfb5",
    "0x46208622DA27d91db4f0393733C8BA082ed83158",
    "0x7c5BF43B851c1dff1a4feE8dB225b87f2C223639",
    600,
    20
  ],
  "numDeployments": 5,
  "solcInputHash": "27652075888417dbd4e7eef4d8f7a913",
  "bytecode": "0x610160604052348015610010575f5ffd5b5060405161330538038061330583398101604081905261002f91610083565b6001600160a01b0396871660805294861660a05292851660c05290841660e052909216610100526101209190915263ffffffff1661014052610118565b6001600160a01b0381168114610080575f5ffd5b50565b5f5f5f5f5f5f5f60e0888a031215610099575f5ffd5b87516100a48161006c565b60208901519097506100b58161006c565b60408901519096506100c68161006c565b60608901519095506100d78161006c565b60808901519094506100e88161006c565b60a089015160c08a0151919450925063ffffffff81168114610108575f5ffd5b8091505092959891949750929550565b60805160a05160c05160e05161010051610120516101405161313b6101ca5f395f818161024701528181610409015261075101525f81816101bf015281816103e8015261073001525f81816101f0015261070e01525f818161019801526103c601525f818160e30152818161038401526106cc01525f8181610220015281816103a50152818161052101526106ed01525f8181610167015281816102f0015281816104a00152610638015261313b5ff3fe608060405234801561000f575f5ffd5b50600436106100da575f3560e01c80638f42798a11610088578063d08c96fc11610063578063d08c96fc146101eb578063d586b74c14610212578063d80528ae1461021b578063fffadde514610242575f5ffd5b80638f42798a146101935780639bb61b48146101ba5780639dfd4e2f146101e1575f5ffd5b8063534357ed116100b8578063534357ed1461014f5780637b10399914610162578063894ac57514610189575f5ffd5b80632b7ac3f3146100de57806335a45d20146101225780633938eb7814610135575b5f5ffd5b6101057f000000000000000000000000000000000000000000000000000000000000000081565b6040516001600160a01b0390911681526020015b60405180910390f35b610105610130366004610908565b61027e565b61014164174876e80081565b604051908152602001610119565b61010561015d366004610908565b6105c3565b6101057f000000000000000000000000000000000000000000000000000000000000000081565b610141620f424081565b6101057f000000000000000000000000000000000000000000000000000000000000000081565b6101417f000000000000000000000000000000000000000000000000000000000000000081565b6101416298968081565b6101057f000000000000000000000000000000000000000000000000000000000000000081565b61014161271081565b6101057f000000000000000000000000000000000000000000000000000000000000000081565b6102697f000000000000000000000000000000000000000000000000000000000000000081565b60405163ffffffff9091168152602001610119565b5f61271082108061029157506298968082115b156102af5760405163d97a6e0f60e01b815260040160405180910390fd5b5f6102b98361077c565b6040516020016102c99190610936565b60408051601f19818403018152908290526347df9bf160e01b825291506001600160a01b037f000000000000000000000000000000000000000000000000000000000000000016906347df9bf190610325908490600401610983565b602060405180830381865afa158015610340573d5f5f3e3d5ffd5b505050506040513d601f19601f820116820180604052508101906103649190610995565b1561038257604051630188c99160e11b815260040160405180910390fd5b7f00000000000000000000000000000000000000000000000000000000000000007f00000000000000000000000000000000000000000000000000000000000000007f0000000000000000000000000000000000000000000000000000000000000000857f00000000000000000000000000000000000000000000000000000000000000007f0000000000000000000000000000000000000000000000000000000000000000604051610434906108fb565b6001600160a01b03968716815294861660208601529490921660408401526060830152608082015263ffffffff90911660a082015260c001604051809103905ff080158015610485573d5f5f3e3d5ffd5b50604051631e59c52960e01b81529092506001600160a01b037f00000000000000000000000000000000000000000000000000000000000000001690631e59c529906104d790849086906004016109b4565b5f604051808303815f87803b1580156104ee575f5ffd5b505af1158015610500573d5f5f3e3d5ffd5b50506040516355ec842360e11b81526001600160a01b0385811660048301527f000000000000000000000000000000000000000000000000000000000000000016925063abd9084691506024015f604051808303815f87803b158015610564575f5ffd5b505af1158015610576573d5f5f3e3d5ffd5b50505050816001600160a01b03167f134a2d5922a0f95967f604077661394523e302d18765968286f362d62aefa93b82856040516105b59291906109de565b60405180910390a250919050565b5f620f42408210806105d9575064174876e80082115b156105f75760405163d97a6e0f60e01b815260040160405180910390fd5b5f6106018361077c565b60405160200161061191906109ff565b60408051601f19818403018152908290526347df9bf160e01b825291506001600160a01b037f000000000000000000000000000000000000000000000000000000000000000016906347df9bf19061066d908490600401610983565b602060405180830381865afa158015610688573d5f5f3e3d5ffd5b505050506040513d601f19601f820116820180604052508101906106ac9190610995565b156106ca57604051630188c99160e11b815260040160405180910390fd5b7f00000000000000000000000000000000000000000000000000000000000000007f00000000000000000000000000000000000000000000000000000000000000007f0000000000000000000000000000000000000000000000000000000000000000857f00000000000000000000000000000000000000000000000000000000000000007f0000000000000000000000000000000000000000000000000000000000000000604051610434906108fb565b60605f61078883610819565b60010190505f8167ffffffffffffffff8111156107a7576107a7610a30565b6040519080825280601f01601f1916602001820160405280156107d1576020820181803683370190505b5090508181016020015b5f19017f3031323334353637383961626364656600000000000000000000000000000000600a86061a8153600a85049450846107db57509392505050565b5f807a184f03e93ff9f4daa797ed6e38ed64bf6a1f0100000000000000008310610861577a184f03e93ff9f4daa797ed6e38ed64bf6a1f010000000000000000830492506040015b6d04ee2d6d415b85acef8100000000831061088d576d04ee2d6d415b85acef8100000000830492506020015b662386f26fc1000083106108ab57662386f26fc10000830492506010015b6305f5e10083106108c3576305f5e100830492506008015b61271083106108d757612710830492506004015b606483106108e9576064830492506002015b600a83106108f5576001015b92915050565b6126ea80610a4583390190565b5f60208284031215610918575f5ffd5b5035919050565b5f81518060208401855e5f93019283525090919050565b636574682d60e01b81525f61094e600483018461091f565b9392505050565b5f81518084528060208401602086015e5f602082860101526020601f19601f83011685010191505092915050565b602081525f61094e6020830184610955565b5f602082840312156109a5575f5ffd5b8151801515811461094e575f5ffd5b604081525f6109c66040830185610955565b90506001600160a01b03831660208301529392505050565b604081525f6109f06040830185610955565b90508260208301529392505050565b7f757364632d00000000000000000000000000000000000000000000000000000081525f61094e600583018461091f565b634e487b7160e01b5f52604160045260245ffdfe610140604052348015610010575f5ffd5b506040516126ea3803806126ea83398101604081905261002f916104f8565b85858484848063ffffffff8116158061004e5750601f8163ffffffff16115b1561006c57604051635f194f1560e01b815260040160405180910390fd5b63ffffffff81166080525f6100c17f30644e72e131a029b85045b68181585d2833e84879b9709143e1f593f00000017f02aef9244453cfc504cb9fbdf927cafe0191b3f950427de6e8ae09224f6676de610570565b90505f5b8263ffffffff168163ffffffff1610156101105763ffffffff81165f90815260016020908152604080832085905590829052902082905561010682806101fa565b91506001016100c5565b507fac33ff75c19e70fe83507db0d683fd3465c996598dc972688b7ace676c89077b8190555f9081526003602052604090204290555060017f9b779b17422d0df92223018b32b4d1fa46e071723d6817e2486d003becc55f00555f83900361018b57604051633da2bae960e01b815260040160405180910390fd5b506001600160a01b0393841660a0529190921660c05260e091909152610100526101bb6101b6610289565b610438565b6001600160a01b0384166101e25760405163ad1991f560e01b815260040160405180910390fd5b5050506001600160a01b031661012052506105d69050565b604080518082018252838152602081018390529051632b0aac7f60e11b81525f91736FC2e4E931dFca927c9320F44FB255a64Cb3539e9163561558fe916102439160040161058f565b602060405180830381865af415801561025e573d5f5f3e3d5ffd5b505050506040513d601f19601f8201168201806040525081019061028291906105bf565b9392505050565b604080516060810182525f808252602082018190529181019190915246600103610322575060408051606080820183525f8083526020808401829052928401528251908101835273ca2e8f1f656cd25c01f05d0b243ab1ecd4a8ffb6815273d82385dada1ae3e969447f20a3164f6213100e75918101919091527377627828a55156b04ac0dc0eb30467f1a552bb039181019190915290565b4662aa36a7036103a1575060408051606080820183525f8083526020808401829052928401528251908101835273f0ffdc93b7e186bc2f8cb3daa75d86d1930a433d81527392c920834ec8941d2c77d188936e1f7a6f49c1279181019190915273be0e383937d564d7ff0bc3b46c51f0bf8d5c311a9181019190915290565b46617a690361041f575060408051606080820183525f808352602080840182905292840152825190810183527350157cffd6bbfa2dece204a89ec419c23ef5755d815273e3a9105a3a932253a70f126eb1e3b589c643dd249181019190915273901f8942346f7ab3a01f6d7613119bca447bb0309181019190915290565b6040516373cac13b60e01b815260040160405180910390fd5b80517f9e7b61f58c47dc699ac88507c4f5bb9f121c03808c5676a8078fe583e464970080546001600160a01b03199081166001600160a01b039384161790915560208301517f9e7b61f58c47dc699ac88507c4f5bb9f121c03808c5676a8078fe583e46497018054831691841691909117905560408301517f9e7b61f58c47dc699ac88507c4f5bb9f121c03808c5676a8078fe583e46497028054909216921691909117905550565b50565b6001600160a01b03811681146104e1575f5ffd5b5f5f5f5f5f5f60c0878903121561050d575f5ffd5b8651610518816104e4565b6020880151909650610529816104e4565b604088015190955061053a816104e4565b6060880151608089015160a08a0151929650909450925063ffffffff81168114610562575f5ffd5b809150509295509295509295565b5f8261058a57634e487b7160e01b5f52601260045260245ffd5b500690565b6040810181835f5b60028110156105b6578151835260209283019290910190600101610597565b50505092915050565b5f602082840312156105cf575f5ffd5b5051919050565b60805160a05160c05160e05161010051610120516120566106945f395f818161039e015281816105d30152818161085d01528181611189015281816111d40152818161125901526112a401525f81816104810152610bda01525f81816104320152818161097301528181610b53015261114101525f818161052e01528181610d3701528181610d6601528181610f840152610fb301525f81816101f10152610c7901525f818161035601528181611433015261148a01526120565ff3fe608060405260043610610199575f3560e01c80638bca6d16116100dc578063cd87a3b411610087578063f178e47c11610062578063f178e47c1461057b578063f9eed560146105a6578063fc0c546a146105c5578063fc7e9c6f146105f7575f5ffd5b8063cd87a3b414610509578063d80528ae1461051d578063e829558814610550575f5ffd5b8063b214faa5116100b7578063b214faa5146104a3578063ba70f757146104b6578063c2b40ae4146104de575f5ffd5b80638bca6d161461042157806390eeb02b146104545780639bb61b4814610470575f5ffd5b80634377de95116101475780636a7543cf116101225780636a7543cf1461038d5780636d9833e3146103c0578063839df945146103df5780638927b0301461040d575f5ffd5b80634377de95146102d757806346083bfd146103265780634ecf518b14610345575f5ffd5b80633b8bf6aa116101775780633b8bf6aa146102585780633f3cfbc714610279578063414a37ba146102a4575f5ffd5b806317cc915c1461019d5780632b7ac3f3146101e057806338bf282e1461022b575b5f5ffd5b3480156101a8575f5ffd5b506101cb6101b7366004611905565b60056020525f908152604090205460ff1681565b60405190151581526020015b60405180910390f35b3480156101eb575f5ffd5b506102137f000000000000000000000000000000000000000000000000000000000000000081565b6040516001600160a01b0390911681526020016101d7565b348015610236575f5ffd5b5061024a61024536600461191c565b61061b565b6040519081526020016101d7565b348015610263575f5ffd5b50610277610272366004611981565b6106ac565b005b348015610284575f5ffd5b5061024a610293366004611905565b60036020525f908152604090205481565b3480156102af575f5ffd5b5061024a7f30644e72e131a029b85045b68181585d2833e84879b9709143e1f593f000000181565b3480156102e2575f5ffd5b5061030f6102f1366004611905565b60076020525f90815260409020805460019091015460ff9091169082565b6040805192151583526020830191909152016101d7565b348015610331575f5ffd5b5061024a610340366004611a11565b610851565b348015610350575f5ffd5b506103787f000000000000000000000000000000000000000000000000000000000000000081565b60405163ffffffff90911681526020016101d7565b348015610398575f5ffd5b506102137f000000000000000000000000000000000000000000000000000000000000000081565b3480156103cb575f5ffd5b506101cb6103da366004611905565b610a38565b3480156103ea575f5ffd5b506101cb6103f9366004611905565b60066020525f908152604090205460ff1681565b348015610418575f5ffd5b5061024a610aae565b34801561042c575f5ffd5b5061024a7f000000000000000000000000000000000000000000000000000000000000000081565b34801561045f575f5ffd5b506004546103789063ffffffff1681565b34801561047b575f5ffd5b5061024a7f000000000000000000000000000000000000000000000000000000000000000081565b6102776104b1366004611905565b610abc565b3480156104c1575f5ffd5b5060045463ffffffff165f9081526002602052604090205461024a565b3480156104e9575f5ffd5b5061024a6104f8366004611905565b60026020525f908152604090205481565b348015610514575f5ffd5b50610378606481565b348015610528575f5ffd5b506102137f000000000000000000000000000000000000000000000000000000000000000081565b34801561055b575f5ffd5b5061024a61056a366004611905565b60016020525f908152604090205481565b348015610586575f5ffd5b5061024a610595366004611905565b5f6020819052908152604090205481565b3480156105b1575f5ffd5b506102776105c0366004611a62565b610af4565b3480156105d0575f5ffd5b507f0000000000000000000000000000000000000000000000000000000000000000610213565b348015610602575f5ffd5b5060045461037890640100000000900463ffffffff1681565b604080518082018252838152602081018390529051632b0aac7f60e11b81525f91736FC2e4E931dFca927c9320F44FB255a64Cb3539e9163561558fe9161066491600401611ae4565b602060405180830381865af415801561067f573d5f5f3e3d5ffd5b505050506040513d601f19601f820116820180604052508101906106a39190611b14565b90505b92915050565b6106b4610e57565b5f858152600760209081526040918290208251808401909352805460ff161515808452600190910154918301919091526107015760405163df0a331d60e01b815260040160405180910390fd5b6040805160018082528183019092525f91602080830190803683370190505090508160200151815f8151811061073957610739611b2b565b6020026020010181815250506107b78187878080601f0160208091040260200160405190810160405280939291908181526020018383808284375f9201919091525050604080516020601f8b0181900481028201810190925289815292508991508890819084018382808284375f92019190915250610e8592505050565b5f6107c486880188611b4c565b5f898152600760205260408120805460ff1916815560010155905080156107f3576107ee88610ef0565b61081e565b60405188907fe1db9e989758262f713fadb80e2525b808b2d9e99a67af5974d781f9a9571890905f90a25b50505061084a60017f9b779b17422d0df92223018b32b4d1fa46e071723d6817e2486d003becc55f0055565b5050505050565b5f336001600160a01b037f0000000000000000000000000000000000000000000000000000000000000000161461089b5760405163ad1991f560e01b815260040160405180910390fd5b602082146108bb5760405162c377ef60e81b815260040160405180910390fd5b5f6108c883850185611905565b5f8181526006602052604090205490915060ff16156108fa57604051635be00f0f60e11b815260040160405180910390fd5b5f8181526007602052604090205460ff16156109295760405163eeef84b160e01b815260040160405180910390fd5b7f30644e72e131a029b85045b68181585d2833e84879b9709143e1f593f0000001811061096957604051632bf2376360e11b815260040160405180910390fd5b5f61099c866109977f0000000000000000000000000000000000000000000000000000000000000000611064565b61107a565b90506109a7816110a8565b506109b1816110c8565b506109bc81336110e3565b505f81604080518082018252600180825260208083018581525f898152600783528590209351845460ff1916901515178455519290910191909155905182815291925084917f116b5ca4a081d77df9f19c98c39cc37bf5da6693557fba4e0ef2643931e57afd910160405180910390a250979650505050505050565b5f81610a4557505f919050565b60045463ffffffff165b63ffffffff81165f908152600260205260409020548303610a735750600192915050565b8063ffffffff165f03610a84575060645b80610a8e81611b82565b60045490925063ffffffff908116908316039050610a4f57505f92915050565b5f610ab7611106565b905090565b3415610adb576040516360f8f32160e01b815260040160405180910390fd5b604051630ca3883160e01b815260040160405180910390fd5b610afc610e57565b5f8481526005602052604090205460ff1615610b2b576040516326c9d20d60e01b815260040160405180910390fd5b610b3485610a38565b610b5157604051634629008b60e11b815260040160405180910390fd5b7f0000000000000000000000000000000000000000000000000000000000000000811115610b92576040516349609d8560e11b815260040160405180910390fd5b5f81118015610ba857506001600160a01b038216155b15610bc65760405163086ec43360e21b815260040160405180910390fd5b5f85815260036020526040902054610bff907f000000000000000000000000000000000000000000000000000000000000000090611ba0565b421015610c1f57604051636272ea9160e01b815260040160405180910390fd5b5f8080610c2e898b018b611c3f565b6040805160a0810182528c8152602081018c90526001600160a01b03808c16828401528a81166060830152608082018a905291516334baeab960e01b815294975092955090935090917f0000000000000000000000000000000000000000000000000000000000000000909116906334baeab990610cb6908790879087908790600401611ceb565b602060405180830381865afa158015610cd1573d5f5f3e3d5ffd5b505050506040513d601f19601f82011682018060405250810190610cf59190611d6e565b610d12576040516309bde33960e01b815260040160405180910390fd5b5f888152600560205260409020805460ff19166001179055610d3587878761113a565b7f00000000000000000000000000000000000000000000000000000000000000006001600160a01b031615610dd3577f00000000000000000000000000000000000000000000000000000000000000006001600160a01b031663a0c071666040518163ffffffff1660e01b81526004015f604051808303815f87803b158015610dbc575f5ffd5b505af1158015610dce573d5f5f3e3d5ffd5b505050505b604080518981526001600160a01b038881166020830152918101879052908816907fe9e508bad6d4c3227e881ca19068f099da81b5164dd6d62b2eaf1e8bc6c349319060600160405180910390a250505050610e4e60017f9b779b17422d0df92223018b32b4d1fa46e071723d6817e2486d003becc55f0055565b50505050505050565b610e5f611317565b60027f9b779b17422d0df92223018b32b4d1fa46e071723d6817e2486d003becc55f0055565b5f610e9184848461135b565b905080610eb15760405163cf6c44e960e01b815260040160405180910390fd5b7fc6366bab028b8d033cb362cfd1f2f3457ef4e92fc738b6788b90d5a7846367a08484604051610ee2929190611df1565b60405180910390a150505050565b5f8181526006602052604090205460ff1615610f1f57604051635be00f0f60e11b815260040160405180910390fd5b7f30644e72e131a029b85045b68181585d2833e84879b9709143e1f593f00000018110610f5f57604051632bf2376360e11b815260040160405180910390fd5b5f818152600660205260408120805460ff19166001179055610f808261141b565b90507f00000000000000000000000000000000000000000000000000000000000000006001600160a01b031615611020577f00000000000000000000000000000000000000000000000000000000000000006001600160a01b0316631ec4ff596040518163ffffffff1660e01b81526004015f604051808303815f87803b158015611009575f5ffd5b505af115801561101b573d5f5f3e3d5ffd5b505050505b6040805163ffffffff8316815242602082015283917fa945e51eec50ab98c161376f0db4cf2aeba3ec92755fe2fcd388bdbbb80ff196910160405180910390a25050565b5f6106a68267ffffffffffffffff1660056115d6565b5f8261108c576110895f611064565b92505b8161109d5761109a5f611064565b91505b6106a383835f611693565b5f816110ba576110b75f611773565b91505b6110c4823061178e565b5090565b5f816110da576110d75f611773565b91505b6110c48261180c565b5f826110f5576110f25f611773565b92505b6110ff838361189d565b5090919050565b5f466001036111155750600190565b4662aa36a703611126575061271190565b46617a690361113557505f1990565b505f90565b5f611165827f0000000000000000000000000000000000000000000000000000000000000000611e15565b905067ffffffffffffffff811615611241575f61118182611064565b90506111ad817f00000000000000000000000000000000000000000000000000000000000000006118f6565b50604051632df5f6bf60e11b81526001600160a01b038681166004830152602482018390527f00000000000000000000000000000000000000000000000000000000000000001690635bebed7e906044016020604051808303815f875af115801561121a573d5f5f3e3d5ffd5b505050506040513d601f19601f8201168201806040525081019061123e9190611b14565b50505b8115611311575f61125183611064565b905061127d817f00000000000000000000000000000000000000000000000000000000000000006118f6565b50604051632df5f6bf60e11b81526001600160a01b038581166004830152602482018390527f00000000000000000000000000000000000000000000000000000000000000001690635bebed7e906044016020604051808303815f875af11580156112ea573d5f5f3e3d5ffd5b505050506040513d601f19601f8201168201806040525081019061130e9190611b14565b50505b50505050565b7f9b779b17422d0df92223018b32b4d1fa46e071723d6817e2486d003becc55f005460020361135957604051633ee5aeb560e01b815260040160405180910390fd5b565b7f9e7b61f58c47dc699ac88507c4f5bb9f121c03808c5676a8078fe583e4649702546040516378542ead60e01b81525f917f9e7b61f58c47dc699ac88507c4f5bb9f121c03808c5676a8078fe583e4649700916001600160a01b03909116906378542ead906113d290889088908890600401611e28565b6020604051808303815f875af11580156113ee573d5f5f3e3d5ffd5b505050506040513d601f19601f820116820180604052508101906114129190611d6e565b95945050505050565b6004545f90640100000000900463ffffffff166114597f00000000000000000000000000000000000000000000000000000000000000006002611f72565b63ffffffff168163ffffffff1603611484576040516377ae67b360e11b815260040160405180910390fd5b80835f5b7f000000000000000000000000000000000000000000000000000000000000000063ffffffff168163ffffffff16101561153c576114c7600284611f9d565b63ffffffff165f036115055763ffffffff81165f9081526020818152604080832085905560019091529020546114fe90839061061b565b9150611527565b63ffffffff81165f90815260208190526040902054611524908361061b565b91505b611532600284611fc4565b9250600101611488565b506004545f906064906115569063ffffffff166001611feb565b6115609190611f9d565b6004805463ffffffff191663ffffffff83169081179091555f9081526002602090815260408083208690558583526003909152902042905590506115a5846001611feb565b6004805463ffffffff929092166401000000000267ffffffff00000000199092169190911790555091949350505050565b7f9e7b61f58c47dc699ac88507c4f5bb9f121c03808c5676a8078fe583e464970154604051639cd07acb60e01b81525f917f9e7b61f58c47dc699ac88507c4f5bb9f121c03808c5676a8078fe583e4649700916001600160a01b0390911690639cd07acb9061164b9087908790600401612007565b6020604051808303815f875af1158015611667573d5f5f3e3d5ffd5b505050506040513d601f19601f8201168201806040525081019061168b9190611b14565b949350505050565b5f5f82156116a65750600160f81b6116a9565b505f5b5f7f9e7b61f58c47dc699ac88507c4f5bb9f121c03808c5676a8078fe583e4649700600181015460405163f77f3f1d60e01b815260048101899052602481018890527fff00000000000000000000000000000000000000000000000000000000000000851660448201529192506001600160a01b03169063f77f3f1d906064016020604051808303815f875af1158015611745573d5f5f3e3d5ffd5b505050506040513d601f19601f820116820180604052508101906117699190611b14565b9695505050505050565b5f6106a682611782575f611785565b60015b60ff165f6115d6565b7f9e7b61f58c47dc699ac88507c4f5bb9f121c03808c5676a8078fe583e46497008054604051635ca4b5b160e11b8152600481018590526001600160a01b0384811660248301529091169063b9496b62906044015b5f604051808303815f87803b1580156117fa575f5ffd5b505af1158015610e4e573d5f5f3e3d5ffd5b6040805160018082528183019092527f9e7b61f58c47dc699ac88507c4f5bb9f121c03808c5676a8078fe583e4649700915f91906020808301908036833701905050905082815f8151811061186357611863611b2b565b60209081029190910101528154604051637d6e912360e11b81526001600160a01b039091169063fadd2246906117e3908490600401612037565b7f9e7b61f58c47dc699ac88507c4f5bb9f121c03808c5676a8078fe583e46497008054604051630f8e573b60e21b8152600481018590526001600160a01b03848116602483015290911690633e395cec906044016117e3565b5f826110f5576110f25f611064565b5f60208284031215611915575f5ffd5b5035919050565b5f5f6040838503121561192d575f5ffd5b50508035926020909101359150565b5f5f83601f84011261194c575f5ffd5b50813567ffffffffffffffff811115611963575f5ffd5b60208301915083602082850101111561197a575f5ffd5b9250929050565b5f5f5f5f5f60608688031215611995575f5ffd5b85359450602086013567ffffffffffffffff8111156119b2575f5ffd5b6119be8882890161193c565b909550935050604086013567ffffffffffffffff8111156119dd575f5ffd5b6119e98882890161193c565b969995985093965092949392505050565b6001600160a01b0381168114611a0e575f5ffd5b50565b5f5f5f5f5f60808688031215611a25575f5ffd5b8535611a30816119fa565b94506020860135611a40816119fa565b935060408601359250606086013567ffffffffffffffff8111156119dd575f5ffd5b5f5f5f5f5f5f5f60c0888a031215611a78575f5ffd5b873567ffffffffffffffff811115611a8e575f5ffd5b611a9a8a828b0161193c565b90985096505060208801359450604088013593506060880135611abc816119fa565b92506080880135611acc816119fa565b96999598509396929591949193505060a09091013590565b6040810181835f5b6002811015611b0b578151835260209283019290910190600101611aec565b50505092915050565b5f60208284031215611b24575f5ffd5b5051919050565b634e487b7160e01b5f52603260045260245ffd5b8015158114611a0e575f5ffd5b5f60208284031215611b5c575f5ffd5b8135611b6781611b3f565b9392505050565b634e487b7160e01b5f52601160045260245ffd5b5f63ffffffff821680611b9757611b97611b6e565b5f190192915050565b808201808211156106a6576106a6611b6e565b604051601f8201601f1916810167ffffffffffffffff81118282101715611be857634e487b7160e01b5f52604160045260245ffd5b604052919050565b5f82601f830112611bff575f5ffd5b611c096040611bb3565b806040840185811115611c1a575f5ffd5b845b81811015611c34578035845260209384019301611c1c565b509095945050505050565b5f5f5f6101008486031215611c52575f5ffd5b611c5c8585611bf0565b925084605f850112611c6c575f5ffd5b6040611c7781611bb3565b8060c0870188811115611c88575f5ffd5b604088015b81811015611cae57611c9f8a82611bf0565b84526020909301928401611c8d565b50819550611cbc8982611bf0565b9450505050509250925092565b805f5b6002811015611311578151845260209384019390910190600101611ccc565b6101a08101611cfa8287611cc9565b60408201855f5b6002811015611d2b57611d15838351611cc9565b6040929092019160209190910190600101611d01565b505050611d3b60c0830185611cc9565b6101008201835f5b6005811015611d62578151835260209283019290910190600101611d43565b50505095945050505050565b5f60208284031215611d7e575f5ffd5b8151611b6781611b3f565b5f8151808452602084019350602083015f5b82811015611db9578151865260209586019590910190600101611d9b565b5093949350505050565b5f81518084528060208401602086015e5f602082860101526020601f19601f83011685010191505092915050565b604081525f611e036040830185611d89565b82810360208401526114128185611dc3565b818103818111156106a6576106a6611b6e565b606081525f611e3a6060830186611d89565b8281036020840152611e4c8186611dc3565b905082810360408401526117698185611dc3565b6001815b6001841115611e9b57808504811115611e7f57611e7f611b6e565b6001841615611e8d57908102905b60019390931c928002611e64565b935093915050565b5f82611eb1575060016106a6565b81611ebd57505f6106a6565b8160018114611ed35760028114611edd57611f0e565b60019150506106a6565b60ff841115611eee57611eee611b6e565b6001841b915063ffffffff821115611f0857611f08611b6e565b506106a6565b5060208310610133831016604e8410600b8410161715611f45575081810a63ffffffff811115611f4057611f40611b6e565b6106a6565b611f5463ffffffff8484611e60565b8063ffffffff04821115611f6a57611f6a611b6e565b029392505050565b5f6106a363ffffffff841663ffffffff8416611ea3565b634e487b7160e01b5f52601260045260245ffd5b5f63ffffffff831680611fb257611fb2611f89565b8063ffffffff84160691505092915050565b5f63ffffffff831680611fd957611fd9611f89565b8063ffffffff84160491505092915050565b63ffffffff81811683821601908111156106a6576106a6611b6e565b828152604081016054831061202a57634e487b7160e01b5f52602160045260245ffd5b8260208301529392505050565b602081525f6106a36020830184611d8956fea164736f6c634300081b000aa164736f6c634300081b000a",
  "deployedBytecode": "0x608060405234801561000f575f5ffd5b50600436106100da575f3560e01c80638f42798a11610088578063d08c96fc11610063578063d08c96fc146101eb578063d586b74c14610212578063d80528ae1461021b578063fffadde514610242575f5ffd5b80638f42798a146101935780639bb61b48146101ba5780639dfd4e2f146101e1575f5ffd5b8063534357ed116100b8578063534357ed1461014f5780637b10399914610162578063894ac57514610189575f5ffd5b80632b7ac3f3146100de57806335a45d20146101225780633938eb7814610135575b5f5ffd5b6101057f000000000000000000000000000000000000000000000000000000000000000081565b6040516001600160a01b0390911681526020015b60405180910390f35b610105610130366004610908565b61027e565b61014164174876e80081565b604051908152602001610119565b61010561015d366004610908565b6105c3565b6101057f000000000000000000000000000000000000000000000000000000000000000081565b610141620f424081565b6101057f000000000000000000000000000000000000000000000000000000000000000081565b6101417f000000000000000000000000000000000000000000000000000000000000000081565b6101416298968081565b6101057f000000000000000000000000000000000000000000000000000000000000000081565b61014161271081565b6101057f000000000000000000000000000000000000000000000000000000000000000081565b6102697f000000000000000000000000000000000000000000000000000000000000000081565b60405163ffffffff9091168152602001610119565b5f61271082108061029157506298968082115b156102af5760405163d97a6e0f60e01b815260040160405180910390fd5b5f6102b98361077c565b6040516020016102c99190610936565b60408051601f19818403018152908290526347df9bf160e01b825291506001600160a01b037f000000000000000000000000000000000000000000000000000000000000000016906347df9bf190610325908490600401610983565b602060405180830381865afa158015610340573d5f5f3e3d5ffd5b505050506040513d601f19601f820116820180604052508101906103649190610995565b1561038257604051630188c99160e11b815260040160405180910390fd5b7f00000000000000000000000000000000000000000000000000000000000000007f00000000000000000000000000000000000000000000000000000000000000007f0000000000000000000000000000000000000000000000000000000000000000857f00000000000000000000000000000000000000000000000000000000000000007f0000000000000000000000000000000000000000000000000000000000000000604051610434906108fb565b6001600160a01b03968716815294861660208601529490921660408401526060830152608082015263ffffffff90911660a082015260c001604051809103905ff080158015610485573d5f5f3e3d5ffd5b50604051631e59c52960e01b81529092506001600160a01b037f00000000000000000000000000000000000000000000000000000000000000001690631e59c529906104d790849086906004016109b4565b5f604051808303815f87803b1580156104ee575f5ffd5b505af1158015610500573d5f5f3e3d5ffd5b50506040516355ec842360e11b81526001600160a01b0385811660048301527f000000000000000000000000000000000000000000000000000000000000000016925063abd9084691506024015f604051808303815f87803b158015610564575f5ffd5b505af1158015610576573d5f5f3e3d5ffd5b50505050816001600160a01b03167f134a2d5922a0f95967f604077661394523e302d18765968286f362d62aefa93b82856040516105b59291906109de565b60405180910390a250919050565b5f620f42408210806105d9575064174876e80082115b156105f75760405163d97a6e0f60e01b815260040160405180910390fd5b5f6106018361077c565b60405160200161061191906109ff565b60408051601f19818403018152908290526347df9bf160e01b825291506001600160a01b037f000000000000000000000000000000000000000000000000000000000000000016906347df9bf19061066d908490600401610983565b602060405180830381865afa158015610688573d5f5f3e3d5ffd5b505050506040513d601f19601f820116820180604052508101906106ac9190610995565b156106ca57604051630188c99160e11b815260040160405180910390fd5b7f00000000000000000000000000000000000000000000000000000000000000007f00000000000000000000000000000000000000000000000000000000000000007f0000000000000000000000000000000000000000000000000000000000000000857f00000000000000000000000000000000000000000000000000000000000000007f0000000000000000000000000000000000000000000000000000000000000000604051610434906108fb565b60605f61078883610819565b60010190505f8167ffffffffffffffff8111156107a7576107a7610a30565b6040519080825280601f01601f1916602001820160405280156107d1576020820181803683370190505b5090508181016020015b5f19017f3031323334353637383961626364656600000000000000000000000000000000600a86061a8153600a85049450846107db57509392505050565b5f807a184f03e93ff9f4daa797ed6e38ed64bf6a1f0100000000000000008310610861577a184f03e93ff9f4daa797ed6e38ed64bf6a1f010000000000000000830492506040015b6d04ee2d6d415b85acef8100000000831061088d576d04ee2d6d415b85acef8100000000830492506020015b662386f26fc1000083106108ab57662386f26fc10000830492506010015b6305f5e10083106108c3576305f5e100830492506008015b61271083106108d757612710830492506004015b606483106108e9576064830492506002015b600a83106108f5576001015b92915050565b6126ea80610a4583390190565b5f60208284031215610918575f5ffd5b5035919050565b5f81518060208401855e5f93019283525090919050565b636574682d60e01b81525f61094e600483018461091f565b9392505050565b5f81518084528060208401602086015e5f602082860101526020601f19601f83011685010191505092915050565b602081525f61094e6020830184610955565b5f602082840312156109a5575f5ffd5b8151801515811461094e575f5ffd5b604081525f6109c66040830185610955565b90506001600160a01b03831660208301529392505050565b604081525f6109f06040830185610955565b90508260208301529392505050565b7f757364632d00000000000000000000000000000000000000000000000000000081525f61094e600583018461091f565b634e487b7160e01b5f52604160045260245ffdfe610140604052348015610010575f5ffd5b506040516126ea3803806126ea83398101604081905261002f916104f8565b85858484848063ffffffff8116158061004e5750601f8163ffffffff16115b1561006c57604051635f194f1560e01b815260040160405180910390fd5b63ffffffff81166080525f6100c17f30644e72e131a029b85045b68181585d2833e84879b9709143e1f593f00000017f02aef9244453cfc504cb9fbdf927cafe0191b3f950427de6e8ae09224f6676de610570565b90505f5b8263ffffffff168163ffffffff1610156101105763ffffffff81165f90815260016020908152604080832085905590829052902082905561010682806101fa565b91506001016100c5565b507fac33ff75c19e70fe83507db0d683fd3465c996598dc972688b7ace676c89077b8190555f9081526003602052604090204290555060017f9b779b17422d0df92223018b32b4d1fa46e071723d6817e2486d003becc55f00555f83900361018b57604051633da2bae960e01b815260040160405180910390fd5b506001600160a01b0393841660a0529190921660c05260e091909152610100526101bb6101b6610289565b610438565b6001600160a01b0384166101e25760405163ad1991f560e01b815260040160405180910390fd5b5050506001600160a01b031661012052506105d69050565b604080518082018252838152602081018390529051632b0aac7f60e11b81525f9173__$75f79a42d9bcbdbb69ad79ebd80f556f39$__9163561558fe916102439160040161058f565b602060405180830381865af415801561025e573d5f5f3e3d5ffd5b505050506040513d601f19601f8201168201806040525081019061028291906105bf565b9392505050565b604080516060810182525f808252602082018190529181019190915246600103610322575060408051606080820183525f8083526020808401829052928401528251908101835273ca2e8f1f656cd25c01f05d0b243ab1ecd4a8ffb6815273d82385dada1ae3e969447f20a3164f6213100e75918101919091527377627828a55156b04ac0dc0eb30467f1a552bb039181019190915290565b4662aa36a7036103a1575060408051606080820183525f8083526020808401829052928401528251908101835273f0ffdc93b7e186bc2f8cb3daa75d86d1930a433d81527392c920834ec8941d2c77d188936e1f7a6f49c1279181019190915273be0e383937d564d7ff0bc3b46c51f0bf8d5c311a9181019190915290565b46617a690361041f575060408051606080820183525f808352602080840182905292840152825190810183527350157cffd6bbfa2dece204a89ec419c23ef5755d815273e3a9105a3a932253a70f126eb1e3b589c643dd249181019190915273901f8942346f7ab3a01f6d7613119bca447bb0309181019190915290565b6040516373cac13b60e01b815260040160405180910390fd5b80517f9e7b61f58c47dc699ac88507c4f5bb9f121c03808c5676a8078fe583e464970080546001600160a01b03199081166001600160a01b039384161790915560208301517f9e7b61f58c47dc699ac88507c4f5bb9f121c03808c5676a8078fe583e46497018054831691841691909117905560408301517f9e7b61f58c47dc699ac88507c4f5bb9f121c03808c5676a8078fe583e46497028054909216921691909117905550565b50565b6001600160a01b03811681146104e1575f5ffd5b5f5f5f5f5f5f60c0878903121561050d575f5ffd5b8651610518816104e4565b6020880151909650610529816104e4565b604088015190955061053a816104e4565b6060880151608089015160a08a0151929650909450925063ffffffff81168114610562575f5ffd5b809150509295509295509295565b5f8261058a57634e487b7160e01b5f52601260045260245ffd5b500690565b6040810181835f5b60028110156105b6578151835260209283019290910190600101610597565b50505092915050565b5f602082840312156105cf575f5ffd5b5051919050565b60805160a05160c05160e05161010051610120516120566106945f395f818161039e015281816105d30152818161085d01528181611189015281816111d40152818161125901526112a401525f81816104810152610bda01525f81816104320152818161097301528181610b53015261114101525f818161052e01528181610d3701528181610d6601528181610f840152610fb301525f81816101f10152610c7901525f818161035601528181611433015261148a01526120565ff3fe608060405260043610610199575f3560e01c80638bca6d16116100dc578063cd87a3b411610087578063f178e47c11610062578063f178e47c1461057b578063f9eed560146105a6578063fc0c546a146105c5578063fc7e9c6f146105f7575f5ffd5b8063cd87a3b414610509578063d80528ae1461051d578063e829558814610550575f5ffd5b8063b214faa5116100b7578063b214faa5146104a3578063ba70f757146104b6578063c2b40ae4146104de575f5ffd5b80638bca6d161461042157806390eeb02b146104545780639bb61b4814610470575f5ffd5b80634377de95116101475780636a7543cf116101225780636a7543cf1461038d5780636d9833e3146103c0578063839df945146103df5780638927b0301461040d575f5ffd5b80634377de95146102d757806346083bfd146103265780634ecf518b14610345575f5ffd5b80633b8bf6aa116101775780633b8bf6aa146102585780633f3cfbc714610279578063414a37ba146102a4575f5ffd5b806317cc915c1461019d5780632b7ac3f3146101e057806338bf282e1461022b575b5f5ffd5b3480156101a8575f5ffd5b506101cb6101b7366004611905565b60056020525f908152604090205460ff1681565b60405190151581526020015b60405180910390f35b3480156101eb575f5ffd5b506102137f000000000000000000000000000000000000000000000000000000000000000081565b6040516001600160a01b0390911681526020016101d7565b348015610236575f5ffd5b5061024a61024536600461191c565b61061b565b6040519081526020016101d7565b348015610263575f5ffd5b50610277610272366004611981565b6106ac565b005b348015610284575f5ffd5b5061024a610293366004611905565b60036020525f908152604090205481565b3480156102af575f5ffd5b5061024a7f30644e72e131a029b85045b68181585d2833e84879b9709143e1f593f000000181565b3480156102e2575f5ffd5b5061030f6102f1366004611905565b60076020525f90815260409020805460019091015460ff9091169082565b6040805192151583526020830191909152016101d7565b348015610331575f5ffd5b5061024a610340366004611a11565b610851565b348015610350575f5ffd5b506103787f000000000000000000000000000000000000000000000000000000000000000081565b60405163ffffffff90911681526020016101d7565b348015610398575f5ffd5b506102137f000000000000000000000000000000000000000000000000000000000000000081565b3480156103cb575f5ffd5b506101cb6103da366004611905565b610a38565b3480156103ea575f5ffd5b506101cb6103f9366004611905565b60066020525f908152604090205460ff1681565b348015610418575f5ffd5b5061024a610aae565b34801561042c575f5ffd5b5061024a7f000000000000000000000000000000000000000000000000000000000000000081565b34801561045f575f5ffd5b506004546103789063ffffffff1681565b34801561047b575f5ffd5b5061024a7f000000000000000000000000000000000000000000000000000000000000000081565b6102776104b1366004611905565b610abc565b3480156104c1575f5ffd5b5060045463ffffffff165f9081526002602052604090205461024a565b3480156104e9575f5ffd5b5061024a6104f8366004611905565b60026020525f908152604090205481565b348015610514575f5ffd5b50610378606481565b348015610528575f5ffd5b506102137f000000000000000000000000000000000000000000000000000000000000000081565b34801561055b575f5ffd5b5061024a61056a366004611905565b60016020525f908152604090205481565b348015610586575f5ffd5b5061024a610595366004611905565b5f6020819052908152604090205481565b3480156105b1575f5ffd5b506102776105c0366004611a62565b610af4565b3480156105d0575f5ffd5b507f0000000000000000000000000000000000000000000000000000000000000000610213565b348015610602575f5ffd5b5060045461037890640100000000900463ffffffff1681565b604080518082018252838152602081018390529051632b0aac7f60e11b81525f9173__$75f79a42d9bcbdbb69ad79ebd80f556f39$__9163561558fe9161066491600401611ae4565b602060405180830381865af415801561067f573d5f5f3e3d5ffd5b505050506040513d601f19601f820116820180604052508101906106a39190611b14565b90505b92915050565b6106b4610e57565b5f858152600760209081526040918290208251808401909352805460ff161515808452600190910154918301919091526107015760405163df0a331d60e01b815260040160405180910390fd5b6040805160018082528183019092525f91602080830190803683370190505090508160200151815f8151811061073957610739611b2b565b6020026020010181815250506107b78187878080601f0160208091040260200160405190810160405280939291908181526020018383808284375f9201919091525050604080516020601f8b0181900481028201810190925289815292508991508890819084018382808284375f92019190915250610e8592505050565b5f6107c486880188611b4c565b5f898152600760205260408120805460ff1916815560010155905080156107f3576107ee88610ef0565b61081e565b60405188907fe1db9e989758262f713fadb80e2525b808b2d9e99a67af5974d781f9a9571890905f90a25b50505061084a60017f9b779b17422d0df92223018b32b4d1fa46e071723d6817e2486d003becc55f0055565b5050505050565b5f336001600160a01b037f0000000000000000000000000000000000000000000000000000000000000000161461089b5760405163ad1991f560e01b815260040160405180910390fd5b602082146108bb5760405162c377ef60e81b815260040160405180910390fd5b5f6108c883850185611905565b5f8181526006602052604090205490915060ff16156108fa57604051635be00f0f60e11b815260040160405180910390fd5b5f8181526007602052604090205460ff16156109295760405163eeef84b160e01b815260040160405180910390fd5b7f30644e72e131a029b85045b68181585d2833e84879b9709143e1f593f0000001811061096957604051632bf2376360e11b815260040160405180910390fd5b5f61099c866109977f0000000000000000000000000000000000000000000000000000000000000000611064565b61107a565b90506109a7816110a8565b506109b1816110c8565b506109bc81336110e3565b505f81604080518082018252600180825260208083018581525f898152600783528590209351845460ff1916901515178455519290910191909155905182815291925084917f116b5ca4a081d77df9f19c98c39cc37bf5da6693557fba4e0ef2643931e57afd910160405180910390a250979650505050505050565b5f81610a4557505f919050565b60045463ffffffff165b63ffffffff81165f908152600260205260409020548303610a735750600192915050565b8063ffffffff165f03610a84575060645b80610a8e81611b82565b60045490925063ffffffff908116908316039050610a4f57505f92915050565b5f610ab7611106565b905090565b3415610adb576040516360f8f32160e01b815260040160405180910390fd5b604051630ca3883160e01b815260040160405180910390fd5b610afc610e57565b5f8481526005602052604090205460ff1615610b2b576040516326c9d20d60e01b815260040160405180910390fd5b610b3485610a38565b610b5157604051634629008b60e11b815260040160405180910390fd5b7f0000000000000000000000000000000000000000000000000000000000000000811115610b92576040516349609d8560e11b815260040160405180910390fd5b5f81118015610ba857506001600160a01b038216155b15610bc65760405163086ec43360e21b815260040160405180910390fd5b5f85815260036020526040902054610bff907f000000000000000000000000000000000000000000000000000000000000000090611ba0565b421015610c1f57604051636272ea9160e01b815260040160405180910390fd5b5f8080610c2e898b018b611c3f565b6040805160a0810182528c8152602081018c90526001600160a01b03808c16828401528a81166060830152608082018a905291516334baeab960e01b815294975092955090935090917f0000000000000000000000000000000000000000000000000000000000000000909116906334baeab990610cb6908790879087908790600401611ceb565b602060405180830381865afa158015610cd1573d5f5f3e3d5ffd5b505050506040513d601f19601f82011682018060405250810190610cf59190611d6e565b610d12576040516309bde33960e01b815260040160405180910390fd5b5f888152600560205260409020805460ff19166001179055610d3587878761113a565b7f00000000000000000000000000000000000000000000000000000000000000006001600160a01b031615610dd3577f00000000000000000000000000000000000000000000000000000000000000006001600160a01b031663a0c071666040518163ffffffff1660e01b81526004015f604051808303815f87803b158015610dbc575f5ffd5b505af1158015610dce573d5f5f3e3d5ffd5b505050505b604080518981526001600160a01b038881166020830152918101879052908816907fe9e508bad6d4c3227e881ca19068f099da81b5164dd6d62b2eaf1e8bc6c349319060600160405180910390a250505050610e4e60017f9b779b17422d0df92223018b32b4d1fa46e071723d6817e2486d003becc55f0055565b50505050505050565b610e5f611317565b60027f9b779b17422d0df92223018b32b4d1fa46e071723d6817e2486d003becc55f0055565b5f610e9184848461135b565b905080610eb15760405163cf6c44e960e01b815260040160405180910390fd5b7fc6366bab028b8d033cb362cfd1f2f3457ef4e92fc738b6788b90d5a7846367a08484604051610ee2929190611df1565b60405180910390a150505050565b5f8181526006602052604090205460ff1615610f1f57604051635be00f0f60e11b815260040160405180910390fd5b7f30644e72e131a029b85045b68181585d2833e84879b9709143e1f593f00000018110610f5f57604051632bf2376360e11b815260040160405180910390fd5b5f818152600660205260408120805460ff19166001179055610f808261141b565b90507f00000000000000000000000000000000000000000000000000000000000000006001600160a01b031615611020577f00000000000000000000000000000000000000000000000000000000000000006001600160a01b0316631ec4ff596040518163ffffffff1660e01b81526004015f604051808303815f87803b158015611009575f5ffd5b505af115801561101b573d5f5f3e3d5ffd5b505050505b6040805163ffffffff8316815242602082015283917fa945e51eec50ab98c161376f0db4cf2aeba3ec92755fe2fcd388bdbbb80ff196910160405180910390a25050565b5f6106a68267ffffffffffffffff1660056115d6565b5f8261108c576110895f611064565b92505b8161109d5761109a5f611064565b91505b6106a383835f611693565b5f816110ba576110b75f611773565b91505b6110c4823061178e565b5090565b5f816110da576110d75f611773565b91505b6110c48261180c565b5f826110f5576110f25f611773565b92505b6110ff838361189d565b5090919050565b5f466001036111155750600190565b4662aa36a703611126575061271190565b46617a690361113557505f1990565b505f90565b5f611165827f0000000000000000000000000000000000000000000000000000000000000000611e15565b905067ffffffffffffffff811615611241575f61118182611064565b90506111ad817f00000000000000000000000000000000000000000000000000000000000000006118f6565b50604051632df5f6bf60e11b81526001600160a01b038681166004830152602482018390527f00000000000000000000000000000000000000000000000000000000000000001690635bebed7e906044016020604051808303815f875af115801561121a573d5f5f3e3d5ffd5b505050506040513d601f19601f8201168201806040525081019061123e9190611b14565b50505b8115611311575f61125183611064565b905061127d817f00000000000000000000000000000000000000000000000000000000000000006118f6565b50604051632df5f6bf60e11b81526001600160a01b038581166004830152602482018390527f00000000000000000000000000000000000000000000000000000000000000001690635bebed7e906044016020604051808303815f875af11580156112ea573d5f5f3e3d5ffd5b505050506040513d601f19601f8201168201806040525081019061130e9190611b14565b50505b50505050565b7f9b779b17422d0df92223018b32b4d1fa46e071723d6817e2486d003becc55f005460020361135957604051633ee5aeb560e01b815260040160405180910390fd5b565b7f9e7b61f58c47dc699ac88507c4f5bb9f121c03808c5676a8078fe583e4649702546040516378542ead60e01b81525f917f9e7b61f58c47dc699ac88507c4f5bb9f121c03808c5676a8078fe583e4649700916001600160a01b03909116906378542ead906113d290889088908890600401611e28565b6020604051808303815f875af11580156113ee573d5f5f3e3d5ffd5b505050506040513d601f19601f820116820180604052508101906114129190611d6e565b95945050505050565b6004545f90640100000000900463ffffffff166114597f00000000000000000000000000000000000000000000000000000000000000006002611f72565b63ffffffff168163ffffffff1603611484576040516377ae67b360e11b815260040160405180910390fd5b80835f5b7f000000000000000000000000000000000000000000000000000000000000000063ffffffff168163ffffffff16101561153c576114c7600284611f9d565b63ffffffff165f036115055763ffffffff81165f9081526020818152604080832085905560019091529020546114fe90839061061b565b9150611527565b63ffffffff81165f90815260208190526040902054611524908361061b565b91505b611532600284611fc4565b9250600101611488565b506004545f906064906115569063ffffffff166001611feb565b6115609190611f9d565b6004805463ffffffff191663ffffffff83169081179091555f9081526002602090815260408083208690558583526003909152902042905590506115a5846001611feb565b6004805463ffffffff929092166401000000000267ffffffff00000000199092169190911790555091949350505050565b7f9e7b61f58c47dc699ac88507c4f5bb9f121c03808c5676a8078fe583e464970154604051639cd07acb60e01b81525f917f9e7b61f58c47dc699ac88507c4f5bb9f121c03808c5676a8078fe583e4649700916001600160a01b0390911690639cd07acb9061164b9087908790600401612007565b6020604051808303815f875af1158015611667573d5f5f3e3d5ffd5b505050506040513d601f19601f8201168201806040525081019061168b9190611b14565b949350505050565b5f5f82156116a65750600160f81b6116a9565b505f5b5f7f9e7b61f58c47dc699ac88507c4f5bb9f121c03808c5676a8078fe583e4649700600181015460405163f77f3f1d60e01b815260048101899052602481018890527fff00000000000000000000000000000000000000000000000000000000000000851660448201529192506001600160a01b03169063f77f3f1d906064016020604051808303815f875af1158015611745573d5f5f3e3d5ffd5b505050506040513d601f19601f820116820180604052508101906117699190611b14565b9695505050505050565b5f6106a682611782575f611785565b60015b60ff165f6115d6565b7f9e7b61f58c47dc699ac88507c4f5bb9f121c03808c5676a8078fe583e46497008054604051635ca4b5b160e11b8152600481018590526001600160a01b0384811660248301529091169063b9496b62906044015b5f604051808303815f87803b1580156117fa575f5ffd5b505af1158015610e4e573d5f5f3e3d5ffd5b6040805160018082528183019092527f9e7b61f58c47dc699ac88507c4f5bb9f121c03808c5676a8078fe583e4649700915f91906020808301908036833701905050905082815f8151811061186357611863611b2b565b60209081029190910101528154604051637d6e912360e11b81526001600160a01b039091169063fadd2246906117e3908490600401612037565b7f9e7b61f58c47dc699ac88507c4f5bb9f121c03808c5676a8078fe583e46497008054604051630f8e573b60e21b8152600481018590526001600160a01b03848116602483015290911690633e395cec906044016117e3565b5f826110f5576110f25f611064565b5f60208284031215611915575f5ffd5b5035919050565b5f5f6040838503121561192d575f5ffd5b50508035926020909101359150565b5f5f83601f84011261194c575f5ffd5b50813567ffffffffffffffff811115611963575f5ffd5b60208301915083602082850101111561197a575f5ffd5b9250929050565b5f5f5f5f5f60608688031215611995575f5ffd5b85359450602086013567ffffffffffffffff8111156119b2575f5ffd5b6119be8882890161193c565b909550935050604086013567ffffffffffffffff8111156119dd575f5ffd5b6119e98882890161193c565b969995985093965092949392505050565b6001600160a01b0381168114611a0e575f5ffd5b50565b5f5f5f5f5f60808688031215611a25575f5ffd5b8535611a30816119fa565b94506020860135611a40816119fa565b935060408601359250606086013567ffffffffffffffff8111156119dd575f5ffd5b5f5f5f5f5f5f5f60c0888a031215611a78575f5ffd5b873567ffffffffffffffff811115611a8e575f5ffd5b611a9a8a828b0161193c565b90985096505060208801359450604088013593506060880135611abc816119fa565b92506080880135611acc816119fa565b96999598509396929591949193505060a09091013590565b6040810181835f5b6002811015611b0b578151835260209283019290910190600101611aec565b50505092915050565b5f60208284031215611b24575f5ffd5b5051919050565b634e487b7160e01b5f52603260045260245ffd5b8015158114611a0e575f5ffd5b5f60208284031215611b5c575f5ffd5b8135611b6781611b3f565b9392505050565b634e487b7160e01b5f52601160045260245ffd5b5f63ffffffff821680611b9757611b97611b6e565b5f190192915050565b808201808211156106a6576106a6611b6e565b604051601f8201601f1916810167ffffffffffffffff81118282101715611be857634e487b7160e01b5f52604160045260245ffd5b604052919050565b5f82601f830112611bff575f5ffd5b611c096040611bb3565b806040840185811115611c1a575f5ffd5b845b81811015611c34578035845260209384019301611c1c565b509095945050505050565b5f5f5f6101008486031215611c52575f5ffd5b611c5c8585611bf0565b925084605f850112611c6c575f5ffd5b6040611c7781611bb3565b8060c0870188811115611c88575f5ffd5b604088015b81811015611cae57611c9f8a82611bf0565b84526020909301928401611c8d565b50819550611cbc8982611bf0565b9450505050509250925092565b805f5b6002811015611311578151845260209384019390910190600101611ccc565b6101a08101611cfa8287611cc9565b60408201855f5b6002811015611d2b57611d15838351611cc9565b6040929092019160209190910190600101611d01565b505050611d3b60c0830185611cc9565b6101008201835f5b6005811015611d62578151835260209283019290910190600101611d43565b50505095945050505050565b5f60208284031215611d7e575f5ffd5b8151611b6781611b3f565b5f8151808452602084019350602083015f5b82811015611db9578151865260209586019590910190600101611d9b565b5093949350505050565b5f81518084528060208401602086015e5f602082860101526020601f19601f83011685010191505092915050565b604081525f611e036040830185611d89565b82810360208401526114128185611dc3565b818103818111156106a6576106a6611b6e565b606081525f611e3a6060830186611d89565b8281036020840152611e4c8186611dc3565b905082810360408401526117698185611dc3565b6001815b6001841115611e9b57808504811115611e7f57611e7f611b6e565b6001841615611e8d57908102905b60019390931c928002611e64565b935093915050565b5f82611eb1575060016106a6565b81611ebd57505f6106a6565b8160018114611ed35760028114611edd57611f0e565b60019150506106a6565b60ff841115611eee57611eee611b6e565b6001841b915063ffffffff821115611f0857611f08611b6e565b506106a6565b5060208310610133831016604e8410600b8410161715611f45575081810a63ffffffff811115611f4057611f40611b6e565b6106a6565b611f5463ffffffff8484611e60565b8063ffffffff04821115611f6a57611f6a611b6e565b029392505050565b5f6106a363ffffffff841663ffffffff8416611ea3565b634e487b7160e01b5f52601260045260245ffd5b5f63ffffffff831680611fb257611fb2611f89565b8063ffffffff84160691505092915050565b5f63ffffffff831680611fd957611fd9611f89565b8063ffffffff84160491505092915050565b63ffffffff81811683821601908111156106a6576106a6611b6e565b828152604081016054831061202a57634e487b7160e01b5f52602160045260245ffd5b8260208301529392505050565b602081525f6106a36020830184611d8956fea164736f6c634300081b000aa164736f6c634300081b000a",
  "libraries": {
    "PoseidonT3": "0x6FC2e4E931dFca927c9320F44FB255a64Cb3539e"
  },
  "devdoc": {
    "kind": "dev",
    "methods": {},
    "stateVariables": {
      "MIN_ETH": {
        "details": "Denominations are confidential-token units (6 decimals)."
      }
    },
    "title": "Permissionless pool factory for custom denominations",
    "version": 1
  },
  "userdoc": {
    "kind": "user",
    "methods": {},
    "notice": "Anyone can spin up a new fixed-denomination pool. Each amount gets its own anonymity set — the UI should warn that privacy is weaker until the pool sees more deposits.",
    "version": 1
  },
  "storageLayout": {
    "storage": [],
    "types": null
  }
}